:020000040800F2
:100000007806002029020008D112000865110008B6
:10001000CD120008CD080008A5130008000000005C
:10002000000000000000000000000000D9120008DD
:10003000D108000800000000D5120008DD120008F9
:10004000430200084302000843020008430200087C
:10005000430200084302000843020008430200086C
:10006000430200084302000843020008430200085C
:10007000430200084302000843020008430200084C
:10008000430200084302000843020008430200083C
:10009000430200084302000843020008430200082C
:1000A000430200084302000843020008430200081C
:1000B000430200084302000843020008430200080C
:1000C00043020008430200084302000843020008FC
:1000D00043020008430200084302000843020008EC
:1000E00043020008430200084302000843020008DC
:1000F00043020008430200084302000843020008CC
:1001000043020008430200084302000843020008BB
:1001100043020008430200084302000843020008AB
:10012000430200084302000843020008430200089B
:10013000430200084302000843020008430200088B
:10014000430200084302000843020008430200087B
:10015000430200084302000843020008430200086B
:10016000430200084302000843020008430200085B
:100170004302000843020008430200080000000098
:10018000430200084302000800F002F800F03CF8C7
:100190000AA090E8000C82448344AAF10107DA45E2
:1001A00001D100F031F8AFF2090EBAE80F0013F0F8
:1001B000010F18BFFB1A43F0010318475017000046
:1001C00070170000103A24BF78C878C1FAD85207D7
:1001D00024BF30C830C144BF04680C6070470000C1
:1001E0000023002400250026103A28BF78C1FBD840
:1001F000520728BF30C148BF0B6070471FB501F0E0
:100200006FFB1FBD10B510BD00F0A9F81146FFF738
:10021000F5FF01F0C9F800F0C7F803B4FFF7F2FFEB
:1002200003BC00F0CFF800000948804709480047A8
:10023000FEE7FEE7FEE7FEE7FEE7FEE7FEE7FEE796
:10024000FEE7FEE704480549054A064B70470000F3
:10025000911300088901000878000020780600202A
:10026000780200207802002053EA020C00F0698036
:100270002DE9F04B4FF00006002B1FBFB3FA83F5BA
:1002800003FA05F424FA05F65E4012BF1643B2FAEB
:1002900082F502FA05F4C5F120051EBF22FA05FC1D
:1002A00044EA0C04203556EA044C4FEA144418BFC3
:1002B000641C4FF000084FF00009904271EB030CF2
:1002C00039D3002919BFB1FA81F701FA07F6B0FA5C
:1002D00080F700FA07F6C7F120071EBF20FA07FCD7
:1002E00046EA0C062037B6FBF4FCA7EB0507103FE7
:1002F00007F01F0BCBF120062CFA06F60CFA0BFBCD
:1003000044BFB3460026202FA4BF5E464FF0000B2B
:100310005BEA060C08BF4FF0010B19EB0B0948EB29
:100320000608ABFB027C06FB02CC0BFB03CCC01B1C
:1003300071EB0C01C1E70B46024641464846BDE859
:10034000F08B13B5084318BF4FF0FF300146AFF3F1
:100350000080BDE81C407047704770477047754685
:1003600000F02CF8AE4605006946534620F0070021
:10037000854618B020B5FFF765FFBDE820404FF077
:1003800000064FF000074FF000084FF0000BAC469E
:10039000ACE8C009ACE8C009ACE8C009ACE8C009E9
:1003A00021F007018D46704710B50446AFF3008079
:1003B0002046BDE81040FFF730BF000000487047FE
:1003C0001000002001491820ABBEFEE72600020005
:1003D0007047000000F03CBAF0B581B09FEDFC1B07
:1003E000044651EC100B53EC112B00F0F1FF9FED84
:1003F000FA0B53EC102B01F075F901F043F948F2B8
:10040000882740F60045064600F00100C4F2412767
:10041000C4F20205386028461021012200F038FBA2
:1004200028461021002200F033FBC6F3400038605C
:1004300028461021012200F02BFB28461021002223
:1004400000F026FBC6F38000386028461021012208
:1004500000F01EFB28461021002200F019FBC6F315
:10046000C000386028461021012200F011FB284608
:100470001021002200F00CFBC6F300103860284663
:100480001021012200F004FB28461021002200F078
:10049000FFFAC6F34010386028461021012200F010
:1004A000F7FA28461021002200F0F2FAC6F3801075
:1004B000386028461021012200F0EAFA284610216F
:1004C000002200F0E5FAC6F3C0103860284610217B
:1004D000012200F0DDFA28461021002200F0D8FAAF
:1004E000C6F30020386028461021012200F0D0FA1F
:1004F00028461021002200F0CBFAC6F340203860D5
:1005000028461021012200F0C3FA284610210022BB
:1005100000F0BEFAC6F38020386028461021012280
:1005200000F0B6FA28461021002200F0B1FAC6F316
:10053000C020386028461021012200F0A9FA284680
:100540001021002200F0A4FAC6F3003038602846DB
:100550001021012200F09CFA28461021002200F010
:1005600097FAC6F34030386028461021012200F087
:100570008FFA28461021002200F08AFAC6F3803054
:10058000386028461021012200F082FA2846102106
:10059000002200F07DFAC6F3C030386028461021F2
:1005A000012200F075FA28461021002200F070FAAE
:1005B000C6F30040386028461021012200F068FA96
:1005C00028461021002200F063FAC6F3404038604C
:1005D00028461021012200F05BFA28461021002253
:1005E00000F056FAC6F380403860284610210122F8
:1005F00000F04EFA28461021002200F049FAC6F316
:10060000C040386028461021012200F041FA2846F7
:100610001021002200F03CFAC6F300503860284652
:100620001021012200F034FA28461021002200F0A7
:100630002FFAC6F34050386028461021012200F0FE
:1006400027FA28461021002200F022FAC6F3805033
:10065000386028461021012200F01AFA284610219D
:10066000002200F015FAC6F3C05038602846102169
:10067000012200F00DFA28461021002200F008FAAD
:10068000C6F30060386028461021012200F000FA0D
:1006900028461021002200F0FBF9C6F340603860C4
:1006A00028461021012200F0F3F9284610210022EB
:1006B00000F0EEF9C6F38060386028461021012270
:1006C00000F0E6F928461021002200F0E1F9C6F317
:1006D000C060386028461021012200F0D9F9284670
:1006E0001021002200F0D4F9C6F3007038602846CB
:1006F0001021012200F0CCF928461021002200F040
:10070000C7F9C6F34070386028461021012200F076
:10071000BFF928461021002200F0BAF9C6F3807014
:10072000386028461021012200F0B2F92846102135
:10073000002200F0ADF9F00F3860284610210122A8
:1007400000F0A6F928461021002200F0A1F904F0DB
:100750000100386028461021012200F099F928464E
:100760001021002200F094F9C4F3400038602846BC
:100770001021012200F08CF928461021002200F0FF
:1007800087F9C4F38000386028461021012200F068
:100790007FF928461021002200F07AF9C4F3C00046
:1007A000386028461021012200F072F928461021F5
:1007B000002200F06DF9C4F30010386028461021C3
:1007C000012200F065F9284600F00AB800BF00BF1A
:1007D0000000000080842E41000000106CC17641B2
:1007E0001021002200F054F9C4F34010386028466C
:1007F0001021012200F04CF928461021002200F0BF
:1008000047F9C4F38010386028461021012200F017
:100810003FF928461021002200F03AF9E00938603B
:1008200028461021012200F033F928461021002229
:1008300000F02EF928460821012200F029F9284667
:100840000821002201B0BDE8F04000F021B900000D
:1008500010B540F60044C4F20204204610210022E4
:1008600000F016F920460821002200F011F9204678
:100870002021002200F00CF920462021012200F066
:1008800007F920462021002200F002F9204610211D
:10089000002200F0FDF820461021012200F0F8F8B7
:1008A00020461021002200F0F3F820460821002203
:1008B00000F0EEF820460821012200F0E9F8204679
:1008C00008210022BDE8104000F0E2B8FEE7000079
:1008D000704700002DE9F04F82B000F13E4241F632
:1008E000004502F1FF77C4F2020508224FEAB7265D
:1008F000A84208BF0722072E38BF4FEAB7224FF0A1
:10090000010A002400274FF00008009208E000BF11
:10091000023708F10108202F04F1040400F0B4802C
:100920000E680AFA08F916EA090FF1D0D1F804A006
:100930000AF0030BABF10106012E17D803228668DB
:1009400002FA07FECA6826EA0E06BA4032438260FF
:100950004268CAF3001522EA090205FA08F54FEACF
:10096000480C6FEA0E062A4342600BE00322BA40AD
:10097000D643BBF1030FBC4604D1BC464FF0030B7A
:1009800022E000BFC2688D68324005FA0CF52A43A8
:10099000BBF1020FC26017D16FF0030202EA5802E6
:1009A000024404F01C030F25D2F820E005FA03FAF4
:1009B0000D692EEA0A0E05FA03F343EA0E031362E9
:1009C000D1F804A00AF0030B02680BFA0CF33240D2
:1009D0001A431AF4403F4FF0010A026098D00022F7
:1009E00043F644030192C4F202031A6843F6004E30
:1009F00042F480421A601A68C4F2010E02F4804286
:100A00000192019A28F003024FF6084C7244CFF687
:100A1000FF7C52F80C3004F00C060F25B540AB43B8
:100A2000009D05FA06F6334342F80C30DEF8082044
:100A30004B6842EA090643F60C4CDD0258BF22EA35
:100A40000906CEF80860C4F2010CDCF800209D0213
:100A500042EA090658BF22EA0906CCF80060DEF82F
:100A600004209D0342EA090658BF22EA0906CEF88F
:100A70000460DEF80020DB0342EA090658BF22EAE0
:100A80000906CEF8006043E702B0BDE8F08F000031
:100A9000002A08BF090481617047000040F270001D
:100AA000C2F200000068704740F2000040F270019E
:100AB000C2F20000C2F2000100780A681044086027
:100AC0007047000080B543F60040C4F202000168A0
:100AD00041F400710160016841F4806101600168C6
:100AE00041F480710160032000F074F80F2000F0E1
:100AF00005F800F027F8002080BD000070B540F236
:100B00000006C2F2000640F208013278C2F200018B
:100B10004FF47A730968B3FBF2F20446B1FBF2F1C9
:100B2000084600F009FB0F2C4FF0010508D838B932
:100B30004FF0FF3021460022002500F01FF87460BE
:100B4000284670BD82B0002043F640010190C4F2F7
:100B500002014A6842F480424A604A6802F48042D4
:100B60000192019A0090086840F08050086008687F
:100B700000F080500090009802B0704710B54EF61B
:100B80000C5CCEF2000CDCF80030C3F3022E8EF0C9
:100B90000704042C28BF0424BEF103034FF0FF3EDA
:100BA0000EFA04F438BF0023A14399400EFA03F370
:100BB0009A43114300F00F02043A624409010C32D7
:100BC00000F16043B0F1FF3FC8BF03F5644211700C
:100BD00010BD00004EF60C51CEF200010A684FF62F
:100BE000FF031A4060F30A2242F0806040F0FD707B
:100BF000086070472DE9F041002800F08B8043F633
:100C00000808C4F202080446D8F8F8030D4600F0BC
:100C10000700884207D288F8F853D8F8F80300F0A4
:100C20000700A84276D12068810717D5410705D56E
:100C3000D8F8001041F4E051C8F80010010705D5BC
:100C4000D8F8001041F46041C8F80010D8F800103E
:100C5000A26821F0F0011143C8F80010C0073FD18D
:100C6000D8F8F80300F00700A84207D988F8F8532D
:100C7000D8F8F80300F00700A8424BD120684107DC
:100C800007D5D8F80010E26821F4E0511143C8F804
:100C90000010000708D5D8F80000216920F4604052
:100CA00040EAC100C8F8000000F054F8D8F800107D
:100CB00041F6FA02C1F30311C0F60002515C40F2A2
:100CC000080220FA01F140F20400C2F200000068BC
:100CD000C2F200021160FFF711FF0020BDE8F081B1
:100CE0006068811E022907D258F8081C89015CBF80
:100CF0000120BDE8F08111E0012807D158F8081C57
:100D000089035CBF0120BDE8F08107E058F8081CAA
:100D1000890703D40120BDE8F08100BFD8F8001096
:100D200021F003010843C8F80000FFF7B7FE0646AC
:100D300041F28837D8F80000616800F00C00B0EB91
:100D4000810F8DD0FFF7AAFE801BB842F2D9032095
:100D5000BDE8F08110B543F60404C4F202046068F3
:100D600000F00C0142F200400829C0F2F40007D064
:100D7000042918BF10BD41F20020C0F27A0010BD56
:100D8000216801F03F02216823684902C3F38811FA
:100D900006D4A1FB00010023FFF766FA07E000BFBD
:100DA00041F20020C0F27A004843B0FBF2F0216823
:100DB0000222C1F3014102EB4101B0FBF1F010BD91
:100DC0002DE9F04182B000286AD00446007843F64D
:100DD0000006C007C4F202060BD0B06800F00C0099
:100DE000042840F0A1803068800302D560680028A4
:100DF00056D0207880071AD5B06810F00C0F09D0B3
:100E0000B06800F00C00082840F0A880706840022C
:100E100000F1A4803068800702D5E06801283FD146
:100E20003068216920F0F80040EAC1003060207885
:100E3000000739D4207840074ED4A5695DB3B06867
:100E400000F00C00082840F0BD80012D28D070680B
:100E5000E16900F480028A4222D1216A00F03F0257
:100E60008A421DD147F6C071626A0140B1EB821F10
:100E700016D1A26A0023CFF6FF7303EBC23200F44F
:100E800040316FF30F0291420AD1E16A00F07060C5
:100E9000B0EB016F04D1002002B0BDE8F08100BFCB
:100EA000012002B0BDE8F0816069002840F2000036
:100EB000C4F2472076D00121C0F8801EFFF7EEFD76
:100EC000054600BF706F8007B4D4FFF7E7FD401BF5
:100ED0000228F7D9DDE000BF306C10F080580AD14D
:100EE00000200190306C40F080503064306C00F095
:100EF00080500190019847F20007C4F2000738685B
:100F0000C00541D4386840F480703860FFF7C6FDF2
:100F1000054600BF3868C00536D4FFF7BFFD401B4B
:100F20000228F7D9B5E000BFB06800F00C0008282F
:100F300003D1706840023FF556AF6068B0F5803F5E
:100F400007D0B0F5A02F40F08D80306840F48020AD
:100F50003060306840F4803030608DE0E068002818
:100F600052D00020C4F2472001210160FFF796FD16
:100F7000054600BF306880073FF552AFFFF78EFD92
:100F8000401B0228F6D984E0A068012805D0052876
:100F90004ED1306F40F004003067306F40F00100F8
:100FA00030674FE00021C0F8801EFFF777FD05464F
:100FB000706F80077FF53EAFFFF770FD401B022882
:100FC000F6D966E00027C4F2472700203866FFF70D
:100FD00065FD022D05460BD1306880015ED5FFF717
:100FE0005DFD401B02284FF00300F5D954E700BF18
:100FF000306880017FF54FAFFFF750FD401B02289E
:101000004FF00300F4D947E70020C4F24720002145
:101010000160FFF743FD0546306880077FF507AFA5
:10102000FFF73CFD401B02284FF00300F4D933E7E3
:10103000316F002821F001013167316F21F0040187
:1010400031674DD0FFF72AFD054641F2883700BFD2
:10105000306F800756D4FFF721FD401BB842F7D907
:1010600017E000BF3168002821F480313160316819
:1010700021F4802131604FD0FFF710FD054600BFFD
:10108000306880033FF5B5AEFFF708FD401B6428CC
:10109000F6D9032002B0BDE8F08100BF04F11C05C1
:1010A0002FCD08430021CFF6FF7140EA821001EBFB
:1010B000C3316FF30F0140EA0560084370600120FF
:1010C0003866FFF7EBFC0446306880013FF5E3AE7D
:1010D000FFF7E4FC001B02284FF00300F4D9DBE625
:1010E000FFF7DCFC054641F2883700BF306F800710
:1010F00008D5FFF7D3FC401BB8424FF00300F5D9E9
:10110000CAE600BFB8F1000F7FF497AE306C20F054
:101110008050306491E600BFFFF7C0FC054600BF79
:10112000306880037FF565AEFFF7B8FC401B64288C
:101130004FF00300F4D9AFE6411E0020B0EB116F71
:101140001CBF012070474EF21002CEF20002516027
:101150004EF62351CEF20001F0230B700721906070
:1011600011607047FEE700002DE9F04786B00026C9
:1011700043F63000CDE904660096C4F2020001682F
:1011800040F6004441F0100101600168C4F202041D
:1011900001F010010091009900960168012241F0D0
:1011A0000401016001684FF03C0801F00401009166
:1011B0000099009601684FF0010941F0200101609B
:1011C000016801F02001009100990096016841F04A
:1011D00080010160016801F0800100910099009692
:1011E000016841F001010160016801F00101009115
:1011F00000990096016841F002010160016801F068
:101200000201009100990096016841F040010160DF
:10121000016801F04001009100990096016841F0D9
:101220000801016000683C2100F00800009000986F
:101230002046FFF72DFC01AD4FF6FF7A032704F59A
:1012400080602946CDF804A0CDE90276FFF742FB85
:10125000A4F580602946CDE901A70396FFF73AFB84
:1012600004F500602946CDE901A70396FFF732FB9C
:1012700049F6FF70CDE90107A4F5406029460396C1
:10128000FFF728FBA4F500602946CDE901A70396E6
:10129000FFF720FB04F540602946CDE901A703963E
:1012A000FFF718FB4FF6C370CDE90107204629462A
:1012B0000396FFF70FFB20462946CDE90189CDE9CA
:1012C0000369FFF707FB06B0BDE8F087FEE7000003
:1012D000FEE700007047000070470000FFF7E4BB26
:1012E000B0B592B0002443F640000B94CDE9094418
:1012F000CDE907440594CDE90344CDE901440094C8
:10130000C4F202000168022541F0805101600068CA
:1013100000F080500090009847F200000094C4F262
:101320000000016841F480410160006800F48040E1
:10133000009000980120099010200A9008200E903B
:101340009020CDE90F050420119006A80695CDE95F
:101350000C54FFF735FD28B1EFF3108072B600BFD3
:10136000FEE700BF0F20CDE901054FF4A050049027
:101370004FF48050059001A804210394FFF73AFC34
:1013800020B1EFF3108072B6FEE700BF12B0B0BD1F
:101390004EF68850CEF20000016841F47001016001
:1013A00070470000FEE70000FFF78CFBFFF798FF97
:1013B000FFF7DAFEFFF70EF89FED030B0120FFF7B2
:1013C0000BF800BFFEE700BF00000000006A084104
:1013D0002DE9C04130B4DFF8A4C23CEA111418BFB3
:1013E0003CEA131400F0ED801CEA111481EA0305B5
:1013F00044EAD57418BF1CEA131500F0C880A4EBAA
:10140000050404F17F7404F500344FF0004545EA0B
:10141000C12145EAC32341EA505143EA52534FEAFE
:10142000C0204FEAC222994208BF904200F09D803E
:101430004FEA13650FF24416765D4FEA134506FB3B
:1014400005F7C7F1807706FB07F74FEAD737A7FB09
:1014500003687642A7FB06CEC8F5803838BFA8F1EE
:10146000010807FB08E6A6FB028C4FF0000EE6FB26
:1014700003CEDCF1000CCEF1004E38BFAEF1010E10
:10148000A6FB0C584FF00007E6FB0E87A1FB08C631
:10149000A0FB07CE16EB0E064FF0000545F1000548
:1014A000E1FB076515F1E04E7EBFA4F580345FEAED
:1014B00046066D4116F1800745F100054FEA1727F2
:1014C00047EA05674FEA15254FEA0666A6F1DE46AC
:1014D000B6F1805F20D9384605EBC47124F0010CC9
:1014E00001EB0C11BCF1FE6F02D8F0BCBDE800812D
:1014F00024425CBF01F5801E9EEAC47F02D4F0BC8A
:10150000BDE80081244200F13980A1F1C041F0BC66
:10151000BDE8004100F0DEB94FEAD02040EA41507A
:101520004FEAD1214FEAD22242EA43524FEAD32373
:10153000A7FB028607FB036605FB02661EEA0E0F89
:1015400058BFA6EB0056B6EB00564FEA520E4EEAD5
:10155000C37E18EB0E0E56EB530EBCD518EB0208EB
:101560005E417F1C55F10005B5E74FF480154FF043
:1015700000074FF000064FF00008ACE701F1C04152
:1015800001F000414FF00000F0BCBDE800810CEA22
:10159000131511EA0C1F00D00CE013EA0C1F00F029
:1015A00026804FF0000081EA030101F00041F0BC09
:1015B000BDE80081F0BCBDE8004181EA030100F014
:1015C00089B9F0BCBDE8004170B500F035F900BF45
:1015D000097EFC3E00F007B84FF0000081EA0301ED
:1015E00001F00041704781EA030100F073B9F0BCDB
:1015F000BDE8004122494FF000007047FFFDFBF9B4
:10160000F7F5F4F2F0EEEDEBE9E8E6E4E3E1E0DE35
:10161000DDDBDAD8D7D5D4D3D1D0CFCDCCCBCAC8A7
:10162000C7C6C5C4C2C1C0BFBEBDBCBBBAB9B8B7CE
:10163000B6B5B4B3B2B1B0AFAEADACABAAA9A8A8C1
:10164000A7A6A5A4A3A3A2A1A09F9F9E9D9C9C9B8F
:101650009A9999989797969595949393929191903A
:101660008F8F8E8E8D8C8C8B8B8A898988888787CB
:101670008685858484838382828181800000FF0740
:101680000000F87F4FEA41034FEA5353A3F580630C
:10169000D3F11E03C8BFD3F1210C0CDD4FF0004283
:1016A00042EAC12242EA505232FA03FC8CEAE17C5F
:1016B000ACEBE1707047102BC4BF0020704703F5FE
:1016C000787CBCF1FF3F04D06FF0004282EA210039
:1016D000704770B500F0B0F8499224800020704740
:1016E000F2E7000070B5DFF848C11CEA111E1EBF0A
:1016F0001CEA13159EEA0C0F95EA0C0F00F06F80A0
:1017000081EA03044EEAD47EAE4421EA4C1123EA76
:101710004C1341F4801143F48013AEF17F7EA1FBA2
:10172000024CA0FB0365361955EB0C05A1FB034CDD
:101730004CF10003A0FB021C16EB0C06654153F1B3
:101740000003094218BF46F0010613F4007F0BD1D5
:101750004FEA03314FEA053041EA155140EA16508D
:1017600034036FF003020AE04FEAC3214FEAC520B9
:1017700041EA555140EA5650F4026FF0020202EB82
:101780002E4201EB025585EACE710AD05FEA440C85
:1017900018BF24F0004450F1000041F1000120EA9C
:1017A000D47040F2FE7C624500D270BDA84214BFE6
:1017B0004FF080444FF04044002E08BF0024BEF19B
:1017C000806FA8BFA1F1C041BDE8704080F2828067
:1017D00001F1C04101F000414FF0000070470CEAF8
:1017E00013159EEA0C0F18BF95EA0C0F06D081EA7C
:1017F000030E4FF000000EF0004170BD00F01CF829
:101800008900013E00F007B800F009B84FEA430C28
:101810005FEA5C5C08D081EA030100F05BB84FEA44
:10182000410C5FEA5C5CF6D102494FF00000704762
:101830000000FF070000F87F0EF1020E2EF0030EED
:101840005EF8046B364205D4012A43EB030515F517
:10185000001F12D8012841EB010C1CF5001F0CD809
:101860000ED14FEAD17C0CEB4C0C0CF1020C15F5AF
:10187000001F08BF4CEBD37C04E04FF0080C01E0E4
:101880004FEAD37C0CEB4C0526FA05F606F007066A
:10189000B6F1040C06D20EEB860CBDE870404CF09D
:1018A000010C6047DFE80CF0090B02024FF0004129
:1018B000A1F500214FF0000070BD19461046012827
:1018C00051EB010418BFD4F5001484BF002001F0CF
:1018D000004170BD0808A0F500114FEA31017047C2
:1018E000F1EE100A4FF6FF71C0F2C03120EA01009C
:1018F00040F04070E1EE100A704700000000000068
:10190000000001020304060708090000301900085E
:101910000000002010000000C40100084019000869
:101920001000002068060000E00100080000000030
:1019300001000000100000000024F400000000007E
:040000050800018965
:00000001FF
